{
  "contractName": "BuyerAccounts",
  "abi": [
    {
      "constant": false,
      "inputs": [
        {
          "name": "uName",
          "type": "string"
        },
        {
          "name": "name",
          "type": "string"
        },
        {
          "name": "accountAddress",
          "type": "string"
        }
      ],
      "name": "createBuyerAccount",
      "outputs": [
        {
          "name": "response",
          "type": "string"
        }
      ],
      "payable": false,
      "stateMutability": "nonpayable",
      "type": "function"
    },
    {
      "constant": true,
      "inputs": [
        {
          "name": "uName",
          "type": "string"
        }
      ],
      "name": "getBuyerAccountAddress",
      "outputs": [
        {
          "name": "name",
          "type": "string"
        },
        {
          "name": "accountAddress",
          "type": "string"
        }
      ],
      "payable": false,
      "stateMutability": "view",
      "type": "function"
    }
  ],
  "bytecode": "0x608060405234801561001057600080fd5b5061073f806100206000396000f30060806040526004361061004c576000357c0100000000000000000000000000000000000000000000000000000000900463ffffffff1680632d9dd1e314610051578063f3ba4f051461019f575b600080fd5b34801561005d57600080fd5b506100b8600480360381019080803590602001908201803590602001908080601f016020809104026020016040519081016040528093929190818152602001838380828437820191505050505050919291929050505061030d565b604051808060200180602001838103835285818151815260200191508051906020019080838360005b838110156100fc5780820151818401526020810190506100e1565b50505050905090810190601f1680156101295780820380516001836020036101000a031916815260200191505b50838103825284818151815260200191508051906020019080838360005b83811015610162578082015181840152602081019050610147565b50505050905090810190601f16801561018f5780820380516001836020036101000a031916815260200191505b5094505050505060405180910390f35b3480156101ab57600080fd5b50610292600480360381019080803590602001908201803590602001908080601f0160208091040260200160405190810160405280939291908181526020018383808284378201915050505050509192919290803590602001908201803590602001908080601f0160208091040260200160405190810160405280939291908181526020018383808284378201915050505050509192919290803590602001908201803590602001908080601f0160208091040260200160405190810160405280939291908181526020018383808284378201915050505050509192919290505050610527565b6040518080602001828103825283818151815260200191508051906020019080838360005b838110156102d25780820151818401526020810190506102b7565b50505050905090810190601f1680156102ff5780820380516001836020036101000a031916815260200191505b509250505060405180910390f35b6060806000836040518082805190602001908083835b6020831015156103485780518252602082019150602081019050602083039250610323565b6001836020036101000a03801982511681845116808217855250505050505090500191505090815260200160405180910390206000018054600181600116156101000203166002900480601f0160208091040260200160405190810160405280929190818152602001828054600181600116156101000203166002900480156104125780601f106103e757610100808354040283529160200191610412565b820191906000526020600020905b8154815290600101906020018083116103f557829003601f168201915b505050505091506000836040518082805190602001908083835b602083101515610451578051825260208201915060208101905060208303925061042c565b6001836020036101000a03801982511681845116808217855250505050505090500191505090815260200160405180910390206001018054600181600116156101000203166002900480601f01602080910402602001604051908101604052809291908181526020018280546001816001161561010002031660029004801561051b5780601f106104f05761010080835404028352916020019161051b565b820191906000526020600020905b8154815290600101906020018083116104fe57829003601f168201915b50505050509050915091565b6060826000856040518082805190602001908083835b602083101515610562578051825260208201915060208101905060208303925061053d565b6001836020036101000a038019825116818451168082178552505050505050905001915050908152602001604051809103902060000190805190602001906105ab92919061066e565b50816000856040518082805190602001908083835b6020831015156105e557805182526020820191506020810190506020830392506105c0565b6001836020036101000a0380198251168184511680821785525050505050509050019150509081526020016040518091039020600101908051906020019061062e92919061066e565b506040805190810160405280600f81526020017f4163636f756e742063726561746564000000000000000000000000000000000081525090509392505050565b828054600181600116156101000203166002900490600052602060002090601f016020900481019282601f106106af57805160ff19168380011785556106dd565b828001600101855582156106dd579182015b828111156106dc5782518255916020019190600101906106c1565b5b5090506106ea91906106ee565b5090565b61071091905b8082111561070c5760008160009055506001016106f4565b5090565b905600a165627a7a7230582093896d562f9f6c34ecd1656cfad85b76821cc64e21204f687c14d8a91740f9fd0029",
  "source": "// SPDX-License-Identifier: GPL-3.0\n\npragma solidity >=0.4.21 <0.7.0;\n\ncontract BuyerAccounts{\n    struct BuyerInfo{\n        string name;\n        string accountAddress;\n    }\n    mapping(string => BuyerInfo) private listOfBuyers;\n\n    function createBuyerAccount(string memory uName,string memory name,string memory accountAddress) public  returns (string memory response){\n      listOfBuyers[uName].name=name;\n      listOfBuyers[uName].accountAddress=accountAddress;\n\n      response=\"Account created\";\n    }\n    function getBuyerAccountAddress(string memory uName) public view returns (string memory name,string memory accountAddress){\n        name=listOfBuyers[uName].name;\n        accountAddress=listOfBuyers[uName].accountAddress;\n    }\n\n}\n",
  "sourcePath": "/home/safdar/Safdar/Land-Registry-System-Using-Blockchain/contracts/BuyerAccounts.sol",
  "compiler": {
    "name": "solc",
    "version": "0.4.25+commit.59dbf8f1.Emscripten.clang"
  },
  "schemaVersion": "2.0.2",
  "updatedAt": "2022-07-07T06:14:17.391Z"
}