{
  "contractName": "InspectorCredentials",
  "abi": [
    {
      "constant": true,
      "inputs": [
        {
          "name": "uName",
          "type": "string"
        },
        {
          "name": "pass",
          "type": "string"
        }
      ],
      "name": "login",
      "outputs": [
        {
          "name": "response",
          "type": "bool"
        }
      ],
      "payable": false,
      "stateMutability": "view",
      "type": "function"
    }
  ],
  "bytecode": "0x60806040526040805190810160405280600681526020017f73616664617200000000000000000000000000000000000000000000000000008152506000908051906020019061004f9291906100ae565b506040805190810160405280600481526020017f31323334000000000000000000000000000000000000000000000000000000008152506001908051906020019061009b9291906100ae565b503480156100a857600080fd5b50610153565b828054600181600116156101000203166002900490600052602060002090601f016020900481019282601f106100ef57805160ff191683800117855561011d565b8280016001018555821561011d579182015b8281111561011c578251825591602001919060010190610101565b5b50905061012a919061012e565b5090565b61015091905b8082111561014c576000816000905550600101610134565b5090565b90565b610308806101626000396000f300608060405260043610610041576000357c0100000000000000000000000000000000000000000000000000000000900463ffffffff16806358467dbc14610046575b600080fd5b34801561005257600080fd5b506100f3600480360381019080803590602001908201803590602001908080601f0160208091040260200160405190810160405280939291908181526020018383808284378201915050505050509192919290803590602001908201803590602001908080601f016020809104026020016040519081016040528093929190818152602001838380828437820191505050505050919291929050505061010d565b604051808215151515815260200191505060405180910390f35b6000826040518082805190602001908083835b6020831015156101455780518252602082019150602081019050602083039250610120565b6001836020036101000a038019825116818451168082178552505050505050905001915050604051809103902060001916600060405180828054600181600116156101000203166002900480156101d35780601f106101b15761010080835404028352918201916101d3565b820191906000526020600020905b8154815290600101906020018083116101bf575b50509150506040518091039020600019161480156102c35750816040518082805190602001908083835b60208310151561022257805182526020820191506020810190506020830392506101fd565b6001836020036101000a038019825116818451168082178552505050505050905001915050604051809103902060001916600160405180828054600181600116156101000203166002900480156102b05780601f1061028e5761010080835404028352918201916102b0565b820191906000526020600020905b81548152906001019060200180831161029c575b5050915050604051809103902060001916145b156102d157600190506102d6565b600090505b929150505600a165627a7a72305820c6569431c5c211517d8c5474958676abb393ac361fefd8296d4c801ae3b744d80029",
  "source": "// SPDX-License-Identifier: GPL-3.0\n\npragma solidity >=0.4.21 <0.7.0;\n\ncontract InspectorCredentials {\n   string userName=\"safdar\";    \n   string password=\"1234\";\n   function login(string memory uName,string memory pass) public view returns (bool response){\n       if(keccak256(bytes(userName)) == keccak256(bytes(uName)) && keccak256(bytes(password)) == keccak256(bytes(pass)) ) \n       {\n       response=true;\n       }\n       else response=false;\n    }\n\n}\n",
  "sourcePath": "/home/safdar/Safdar/Land-Registry-System-Using-Blockchain/contracts/InspectorCredentials.sol",
  "compiler": {
    "name": "solc",
    "version": "0.4.25+commit.59dbf8f1.Emscripten.clang"
  },
  "schemaVersion": "2.0.2",
  "updatedAt": "2022-07-07T06:14:07.813Z"
}