{
  "contractName": "LandRecords",
  "abi": [
    {
      "constant": false,
      "inputs": [
        {
          "name": "id",
          "type": "string"
        },
        {
          "name": "sellerName",
          "type": "string"
        },
        {
          "name": "sellerAccountAddress",
          "type": "string"
        },
        {
          "name": "sellingPrice",
          "type": "string"
        },
        {
          "name": "landDetails",
          "type": "string"
        }
      ],
      "name": "registerForSelling",
      "outputs": [],
      "payable": false,
      "stateMutability": "nonpayable",
      "type": "function"
    },
    {
      "constant": true,
      "inputs": [],
      "name": "getAllLandRecordsCount",
      "outputs": [
        {
          "name": "",
          "type": "uint256"
        }
      ],
      "payable": false,
      "stateMutability": "view",
      "type": "function"
    },
    {
      "constant": false,
      "inputs": [
        {
          "name": "id",
          "type": "string"
        }
      ],
      "name": "updateAprrovalStatus",
      "outputs": [],
      "payable": false,
      "stateMutability": "nonpayable",
      "type": "function"
    },
    {
      "constant": false,
      "inputs": [
        {
          "name": "id",
          "type": "string"
        },
        {
          "name": "buyerName",
          "type": "string"
        },
        {
          "name": "buyerAccountAddress",
          "type": "string"
        }
      ],
      "name": "updatePurchaseDetails",
      "outputs": [],
      "payable": false,
      "stateMutability": "nonpayable",
      "type": "function"
    },
    {
      "constant": true,
      "inputs": [
        {
          "name": "id",
          "type": "string"
        }
      ],
      "name": "getLandDetails",
      "outputs": [
        {
          "name": "sellerName",
          "type": "string"
        },
        {
          "name": "sellerAccountAddress",
          "type": "string"
        },
        {
          "name": "sellingPrice",
          "type": "string"
        },
        {
          "name": "landDetails",
          "type": "string"
        },
        {
          "name": "isApproved",
          "type": "bool"
        },
        {
          "name": "buyerName",
          "type": "string"
        },
        {
          "name": "buyerAccountAddress",
          "type": "string"
        }
      ],
      "payable": false,
      "stateMutability": "view",
      "type": "function"
    }
  ],
  "bytecode": "0x60806040526000805534801561001457600080fd5b50611268806100246000396000f30060806040526004361061006d576000357c0100000000000000000000000000000000000000000000000000000000900463ffffffff168063336df300146100725780633c1eb0f9146100db578063999f73ce146101065780639a2ae37c14610287578063c97ac7d914610590575b600080fd5b34801561007e57600080fd5b506100d9600480360381019080803590602001908201803590602001908080601f0160208091040260200160405190810160405280939291908181526020018383808284378201915050505050509192919290505050610685565b005b3480156100e757600080fd5b506100f061070e565b6040518082815260200191505060405180910390f35b34801561011257600080fd5b50610285600480360381019080803590602001908201803590602001908080601f0160208091040260200160405190810160405280939291908181526020018383808284378201915050505050509192919290803590602001908201803590602001908080601f0160208091040260200160405190810160405280939291908181526020018383808284378201915050505050509192919290803590602001908201803590602001908080601f0160208091040260200160405190810160405280939291908181526020018383808284378201915050505050509192919290803590602001908201803590602001908080601f0160208091040260200160405190810160405280939291908181526020018383808284378201915050505050509192919290803590602001908201803590602001908080601f0160208091040260200160405190810160405280939291908181526020018383808284378201915050505050509192919290505050610717565b005b34801561029357600080fd5b506102ee600480360381019080803590602001908201803590602001908080601f01602080910402602001604051908101604052809392919081815260200183838082843782019150505050505091929192905050506109c2565b604051808060200180602001806020018060200188151515158152602001806020018060200187810387528e818151815260200191508051906020019080838360005b8381101561034c578082015181840152602081019050610331565b50505050905090810190601f1680156103795780820380516001836020036101000a031916815260200191505b5087810386528d818151815260200191508051906020019080838360005b838110156103b2578082015181840152602081019050610397565b50505050905090810190601f1680156103df5780820380516001836020036101000a031916815260200191505b5087810385528c818151815260200191508051906020019080838360005b838110156104185780820151818401526020810190506103fd565b50505050905090810190601f1680156104455780820380516001836020036101000a031916815260200191505b5087810384528b818151815260200191508051906020019080838360005b8381101561047e578082015181840152602081019050610463565b50505050905090810190601f1680156104ab5780820380516001836020036101000a031916815260200191505b50878103835289818151815260200191508051906020019080838360005b838110156104e45780820151818401526020810190506104c9565b50505050905090810190601f1680156105115780820380516001836020036101000a031916815260200191505b50878103825288818151815260200191508051906020019080838360005b8381101561054a57808201518184015260208101905061052f565b50505050905090810190601f1680156105775780820380516001836020036101000a031916815260200191505b509d505050505050505050505050505060405180910390f35b34801561059c57600080fd5b50610683600480360381019080803590602001908201803590602001908080601f0160208091040260200160405190810160405280939291908181526020018383808284378201915050505050509192919290803590602001908201803590602001908080601f0160208091040260200160405190810160405280939291908181526020018383808284378201915050505050509192919290803590602001908201803590602001908080601f016020809104026020016040519081016040528093929190818152602001838380828437820191505050505050919291929050505061108c565b005b600180826040518082805190602001908083835b6020831015156106be5780518252602082019150602081019050602083039250610699565b6001836020036101000a038019825116818451168082178552505050505050905001915050908152602001604051809103902060040160006101000a81548160ff02191690831515021790555050565b60008054905090565b836001866040518082805190602001908083835b602083101515610750578051825260208201915060208101905060208303925061072b565b6001836020036101000a03801982511681845116808217855250505050505090500191505090815260200160405180910390206000019080519060200190610799929190611197565b50826001866040518082805190602001908083835b6020831015156107d357805182526020820191506020810190506020830392506107ae565b6001836020036101000a0380198251168184511680821785525050505050509050019150509081526020016040518091039020600101908051906020019061081c929190611197565b50816001866040518082805190602001908083835b6020831015156108565780518252602082019150602081019050602083039250610831565b6001836020036101000a0380198251168184511680821785525050505050509050019150509081526020016040518091039020600201908051906020019061089f929190611197565b50806001866040518082805190602001908083835b6020831015156108d957805182526020820191506020810190506020830392506108b4565b6001836020036101000a03801982511681845116808217855250505050505090500191505090815260200160405180910390206003019080519060200190610922929190611197565b5060006001866040518082805190602001908083835b60208310151561095d5780518252602082019150602081019050602083039250610938565b6001836020036101000a038019825116818451168082178552505050505050905001915050908152602001604051809103902060040160006101000a81548160ff02191690831515021790555060008081548092919060010191905055505050505050565b60608060608060006060806001886040518082805190602001908083835b602083101515610a0557805182526020820191506020810190506020830392506109e0565b6001836020036101000a03801982511681845116808217855250505050505090500191505090815260200160405180910390206000018054600181600116156101000203166002900480601f016020809104026020016040519081016040528092919081815260200182805460018160011615610100020316600290048015610acf5780601f10610aa457610100808354040283529160200191610acf565b820191906000526020600020905b815481529060010190602001808311610ab257829003601f168201915b505050505096506001886040518082805190602001908083835b602083101515610b0e5780518252602082019150602081019050602083039250610ae9565b6001836020036101000a03801982511681845116808217855250505050505090500191505090815260200160405180910390206001018054600181600116156101000203166002900480601f016020809104026020016040519081016040528092919081815260200182805460018160011615610100020316600290048015610bd85780601f10610bad57610100808354040283529160200191610bd8565b820191906000526020600020905b815481529060010190602001808311610bbb57829003601f168201915b505050505095506001886040518082805190602001908083835b602083101515610c175780518252602082019150602081019050602083039250610bf2565b6001836020036101000a03801982511681845116808217855250505050505090500191505090815260200160405180910390206002018054600181600116156101000203166002900480601f016020809104026020016040519081016040528092919081815260200182805460018160011615610100020316600290048015610ce15780601f10610cb657610100808354040283529160200191610ce1565b820191906000526020600020905b815481529060010190602001808311610cc457829003601f168201915b505050505094506001886040518082805190602001908083835b602083101515610d205780518252602082019150602081019050602083039250610cfb565b6001836020036101000a03801982511681845116808217855250505050505090500191505090815260200160405180910390206003018054600181600116156101000203166002900480601f016020809104026020016040519081016040528092919081815260200182805460018160011615610100020316600290048015610dea5780601f10610dbf57610100808354040283529160200191610dea565b820191906000526020600020905b815481529060010190602001808311610dcd57829003601f168201915b505050505093506001886040518082805190602001908083835b602083101515610e295780518252602082019150602081019050602083039250610e04565b6001836020036101000a038019825116818451168082178552505050505050905001915050908152602001604051809103902060040160009054906101000a900460ff1692506001886040518082805190602001908083835b602083101515610ea75780518252602082019150602081019050602083039250610e82565b6001836020036101000a03801982511681845116808217855250505050505090500191505090815260200160405180910390206005018054600181600116156101000203166002900480601f016020809104026020016040519081016040528092919081815260200182805460018160011615610100020316600290048015610f715780601f10610f4657610100808354040283529160200191610f71565b820191906000526020600020905b815481529060010190602001808311610f5457829003601f168201915b505050505091506001886040518082805190602001908083835b602083101515610fb05780518252602082019150602081019050602083039250610f8b565b6001836020036101000a03801982511681845116808217855250505050505090500191505090815260200160405180910390206006018054600181600116156101000203166002900480601f01602080910402602001604051908101604052809291908181526020018280546001816001161561010002031660029004801561107a5780601f1061104f5761010080835404028352916020019161107a565b820191906000526020600020905b81548152906001019060200180831161105d57829003601f168201915b50505050509050919395979092949650565b806001846040518082805190602001908083835b6020831015156110c557805182526020820191506020810190506020830392506110a0565b6001836020036101000a0380198251168184511680821785525050505050509050019150509081526020016040518091039020600601908051906020019061110e929190611197565b50816001846040518082805190602001908083835b6020831015156111485780518252602082019150602081019050602083039250611123565b6001836020036101000a03801982511681845116808217855250505050505090500191505090815260200160405180910390206005019080519060200190611191929190611197565b50505050565b828054600181600116156101000203166002900490600052602060002090601f016020900481019282601f106111d857805160ff1916838001178555611206565b82800160010185558215611206579182015b828111156112055782518255916020019190600101906111ea565b5b5090506112139190611217565b5090565b61123991905b8082111561123557600081600090555060010161121d565b5090565b905600a165627a7a7230582019c6da0411e4e202de516af4361f4674da9f2a31b4a4ea142f16e7b3552771d80029",
  "source": "// SPDX-License-Identifier: GPL-3.0\n\npragma solidity >=0.4.21 <0.7.0;\n\ncontract LandRecords{\n    struct LandInfo{\n        string sellerName;\n        string sellerAccountAddress;\n        string sellingPrice;\n        string landDetails;\n        bool isApproved;\n        string buyerName;\n        string buyerAccountAddress;\n        // string purchaseTimeAndDate;\n    }\n\n    uint counter=0;\n    mapping(string => LandInfo) private listOfLandRecords;\n\n    function registerForSelling(string memory id,string memory sellerName,string memory sellerAccountAddress,\n    string memory sellingPrice,string memory landDetails\n    ) public {\n      listOfLandRecords[id].sellerName=sellerName;\n      listOfLandRecords[id].sellerAccountAddress=sellerAccountAddress;\n      listOfLandRecords[id].sellingPrice=sellingPrice;\n      listOfLandRecords[id].landDetails=landDetails;\n      listOfLandRecords[id].isApproved=false;\n      counter++;\n    }\n\n    function getAllLandRecordsCount() public view returns (uint){\n       return counter;\n    }\n\n    function updateAprrovalStatus(string memory id) public {\n        listOfLandRecords[id].isApproved=true;\n    }\n\n    function updatePurchaseDetails(string memory id,string memory buyerName,string memory buyerAccountAddress) public {\n          listOfLandRecords[id].buyerAccountAddress=buyerAccountAddress;\n          listOfLandRecords[id].buyerName=buyerName;\n    }\n\n    function getLandDetails(string memory id) public view returns(\n        string memory sellerName,string memory sellerAccountAddress,\n        string memory sellingPrice,string memory landDetails,bool  isApproved,string memory buyerName,\n        string memory buyerAccountAddress\n    ){\n      sellerName = listOfLandRecords[id].sellerName;\n      sellerAccountAddress=  listOfLandRecords[id].sellerAccountAddress;\n      sellingPrice = listOfLandRecords[id].sellingPrice;\n      landDetails = listOfLandRecords[id].landDetails;\n      isApproved = listOfLandRecords[id].isApproved;\n      buyerName=listOfLandRecords[id].buyerName;\n      buyerAccountAddress=listOfLandRecords[id].buyerAccountAddress;\n\n    }\n}\n",
  "sourcePath": "/home/safdar/Safdar/Land-Registry-System-Using-Blockchain/contracts/LandRecords.sol",
  "compiler": {
    "name": "solc",
    "version": "0.4.25+commit.59dbf8f1.Emscripten.clang"
  },
  "schemaVersion": "2.0.2",
  "updatedAt": "2022-07-07T06:14:20.932Z"
}